:0400000080316528BE
:100008007E14803120007F08F1002100101C0D288B
:100018000E2815282000101C122813281528101047
:100028005E142100111F19281A2839282000111FD1
:100038001E281F283928111321001C08F0007008F9
:100048002000DC00DE145D0303192B282C2833283C
:1000580003305D06031D31283228392833285C080F
:10006800F0007008DA00392839282100921C3D2850
:100078003E2860282000921C4228432860289210BD
:100088005A085B02031849284A284F280130F00013
:100098007008DB074F285B085A02031854285528B4
:1000A80058280130DB02582821009D185C285D285B
:1000B80060289D146028602871082000FF007E10C9
:1000C8000900803167282000DA01DB01DC01DD014D
:1000D800DE017E1020008631992E20002908803903
:1000E800AE002E08B3002935AE002E08B900A81FAF
:1000F8007E287F2881283914812839080319852802
:1001080086289628390A031D8A288B2894280030C7
:10011800A9000030A8000030A7000030A6009428ED
:10012800A8179F280030A9000030A8000030A700B9
:100138000030A6009F282D088039AE002E08B3068F
:100148002D35AE002E08B800AC1FAB28AC28AE2861
:100158003814AE2838080319B228B328C328380A37
:10016800031DB728B828C1280030AD000030AC0006
:100178000030AB000030AA00C128AC17CC280030F2
:10018800AD000030AC000030AB000030AA00CC2835
:1001980038080319D028D128D7283908031DD528AD
:1001A800D628E128D7280030A9000030A800003060
:1001B800A7000030A600DB2ADB2A2608AE002E089E
:1001C800F2002C0887315D27803173082000BF00BA
:1001D8007208BE003E08AE00AF01B001B10131089F
:1001E800B7003008B6002F08B5002E08B4003F0845
:1001F800AE00AF01B001B1013108BD003008BC004C
:100208002F08BB002E08BA002708AE002E08F200FF
:100218002B0887315D27803173082000BF007208E2
:10022800BE003E08AE00AF01B001B1012E08B40710
:100238002F08B53D3008B63D3108B73D3F08AE0040
:10024800AF01B001B1012E08BA072F08BB3D300835
:10025800BC3D3108BD3D2808AE002E08F2002A0832
:1002680087315D27803173082000BF007208BE0007
:100278003E08AE00AF01B001B1012E08B4072F0847
:10028800B53D3008B63D3108B73D3F08AE00AF0177
:10029800B001B1012E08BA072F08BB3D3008BC3D9C
:1002A8003108BD3D0830B435B50DB60DB70D890B15
:1002B80057292708AE002E08F2002A0887315D2743
:1002C800803173082000BF007208BE003E08B407E2
:1002D8003F08B53D0030B63DB73D2608AE002E08B4
:1002E800F2002B0887315D27803173082000BF009A
:1002F8007208BE003E08B4073F08B53D0030B63D61
:10030800B73D0830B435B50DB60DB70D890B862944
:100318002608AE002E08F2002A0887315D278031B2
:1003280073082000BF007208BE003E08B4073F08EB
:10033800B53D0030B63DB73D2708AE002E08F200A7
:100348002C0887315D27803173082000BF007208B0
:10035800BE003E08BA073F08BB3D0030BC3DBD3D6E
:100368002808AE002E08F2002B0887315D2780315F
:1003780073082000BF007208BE003E08BA073F0895
:10038800BB3D0030BC3DBD3D2808AE002E08F20044
:100398002C0887315D27803173082000BF00720860
:1003A800BE003E08AE003F08AF00B001B101083002
:1003B800AE35AF0DB00DB10D890BDC292E08BA078B
:1003C8002F08BB3D3008BC3D3108BD3D3408AE00A8
:1003D8003508AF003608B0003708B1001830B1361C
:1003E800B00CAF0CAE0C890BF3292E08BA072F08F6
:1003F800BB3D3008BC3D3108BD3D0830B435B50DB6
:10040800B60DB70D890B022A39083807AE00AF01BF
:10041800AF0D2E08823EBE00FF302F3DBF002D2AB3
:100428000130BA35BB0DBC0DBD0D890B152AB71FA0
:100438001E2A1F2A212A3A14212A0130B435B50D63
:10044800B60DB70D890B222AFF30BE07FF30BF3D1E
:100458002D2ABC1F302A312A142A322AB801B71F84
:10046800362A372A572AFF303405AE00FF303505C3
:10047800AF00FF303605B0007F303705B1003108D6
:1004880030042F042E0403194A2A4B2A4E2AB80195
:10049800B80A572A3A1C512A522A572AB801B80AC8
:1004A800572A572A572A380803195B2A5C2A862AAA
:1004B8000130BA070030BB3D0030BC3D0030BD3DC7
:1004C8003D1C672A682A862A3A08AE003B08AF0016
:1004D8003C08B0003D08B1000130B200B137B00CA3
:1004E800AF0CAE0CB20B722A3108BD003008BC004C
:1004F8002F08BB002E08BA000130BE070030BF3DF0
:10050800862A862A3F08803AAE0080302E02031DD4
:100518008F2AFF303E02031C922A932A9D2A7F309D
:100528002000BD008030BC000030BB000030BA00A5
:10053800CE2A20003F08803AAE0080302E02031DEC
:10054800A72A01303E020318AA2AAB2AB62A00308D
:100558002000BD000030BC000030BB000030BA00F5
:10056800B301CE2A20003E08AE002E08B900FF30A5
:10057800BA05FF30BB057F30BC050030BD05391C0E
:10058800C62AC72AC92ABC17C92A3936AE002E0876
:10059800BD00CE2A3308AE002E08BD043D08A900D0
:1005A8003C08A8003B08A7003A08A600DB2A080078
:1005B80020002D088039AE002E08B3002D35AE007E
:1005C8002E08BE00AC1FE92AEA2AEC2A3E14EC2ABF
:1005D8003E080319F02AF12A022B3E0A031DF52AC8
:1005E800F62AFF2A0030AD000030AC000030AB0026
:1005F8000030AA00FF2AAC17AD010B2B0030AD006C
:100608000030AC000030AB000030AA000B2B2908EA
:100618008039AE002E08B3062935AE002E08BF007B
:10062800A81F172B182B1A2B3F141A2B3F08031936
:100638001E2B1F2B302B3F0A031D232B242B2D2B66
:100648000030A9000030A8000030A7000030A60044
:100658002D2BA817A901382B0030A9000030A800BD
:100668000030A7000030A600290828042704260423
:10067800031D3F2B402B562B0030AD000030AC0043
:100688000030AB000030AA008030AC047F30AD04ED
:100698002D08A9002C08A8002B08A7002A08A600E6
:1006A800B62CB62C3E08031D5A2B5B2B6D2B003045
:1006B800AD000030AC000030AB000030AA002D08BF
:1006C800A9002C08A8002B08A7002A08A600B62C09
:1006D800B62C3F08AE00AF01AE09AF09AE0A031948
:1006E800AF0A3E082E07B0002F0803182F0AB100E2
:1006F80030087F3EB8000030313DB9002D08B70002
:100708002C08B6002B08B5002A08B4000030AD004C
:100718000030AC000030AB000030AA000030BD0053
:100728000030BC000030BB000030BA00BF01DE2B37
:100738003F080319A02BA12BBD2B0130B435B50DF3
:10074800B60DB70D890BA22B0130AA35AB0DAC0D38
:10075800AD0D890BA92BBD1FB22BB32BB52B2A14BA
:10076800B52B0130BA35BB0DBC0DBD0D890BB62BB1
:10077800BD2B29083702031DCB2B28083602031D81
:10078800CB2B27083502031DCB2B26083402031C6C
:10079800CE2BCF2BD92B3D172608B4022708B53B03
:1007A8002808B63B2908B73BD92B0130AE002E08E4
:1007B800BF07DE2B1A303F02031CE32BE42B9C2BD4
:1007C800E52B37083604350434040319EC2BED2BDC
:1007D800092C3A14092C092C0130AA35AB0DAC0DA3
:1007E800AD0D890BF12BBD1FFA2BFB2BFD2B2A140A
:1007F800FD2B0130BA35BB0DBC0DBD0D890BFE2B91
:10080800FF30B807FF30B93D092CAC1F0C2C0D2C5C
:10081800F02B0E2CBF01BD1F122C132C332CFF30D4
:100828003A05AE00FF303B05AF00FF303C05B00095
:100838007F303D05B100310830042F042E04031920
:10084800262C272C2A2CBF01BF0A332C2A1C2D2C1E
:100858002E2C332CBF01BF0A332C332C332C3F08EA
:100868000319372C382C622C0130AA070030AB3D15
:100878000030AC3D0030AD3D2D1C432C442C622C87
:100888002A08AE002B08AF002C08B0002D08B100D4
:100898000130B200B137B00CAF0CAE0CB20B4E2C1D
:1008A8003108AD003008AC002F08AB002E08AA00B4
:1008B8000130B8070030B93D622C622C3908803A03
:1008C800AE0080302E02031D6B2CFF303802031C53
:1008D8006E2C6F2C7C2CFF302000B8000030B90043
:1008E8000030AD000030AC000030AB000030AA0092
:1008F80020003908803AAE0080302E02031D862C75
:10090800013038020318892C8A2C962C2000B80153
:10091800B9010030AD000030AC000030AB00003051
:10092800AA00B30120003808AE002E08BE003E1C05
:100938009E2C9F2CA12CAC17A52C7F30AE002E0826
:10094800AC053E36AE002E08AD003308AE002E08CA
:10095800AD042D08A9002C08A8002B08A7002A0818
:10096800A600B62C08002000A00020080319BD2C02
:10097800BE2CD22CF51FC12CC22CD22C7209A2007D
:100988007309A3007409A4007509A500A20A031934
:10099800A30A0319A40A0319A50ADA2C7508A500E5
:1009A8007408A4007308A3007208A20075087404F0
:1009B80073047204031DE12CE22CEC2C0030F500CA
:1009C8000030F4000030F3000030F2006B2D6B2D86
:1009D8009630F6007608A100FD2C0130F600760866
:1009E800A1070130A536A40CA30CA20C890BF62C88
:1009F800FD2CFE302505031D022D032DF12C182D8D
:100A0800182D0130F6007608A1070130A207003042
:100A1800A33D0030A43D0030A53D0130A536A40C0F
:100A2800A30CA20C890B122DFF302505031D1D2DCB
:100A38001E2D052D2A2D2A2D0130A1020130A235A7
:100A4800A30DA40DA50D890B232D2A2DA41B2D2D37
:100A58002E2D352D023021020318332D342D202D53
:100A6800352D2118382D392D412DFF30A205FF30A5
:100A7800A3057F30A405FF30A5050310A10C2108AC
:100A8800F600F701F801F9011830F635F70DF80D01
:100A9800F90D890B492D7608A2047708A304780874
:100AA800A4047908A504200803195B2D5C2D622D88
:100AB800F51F5F2D602D622DA517622D2508F50005
:100AC8002408F4002308F3002208F2006B2D080024
:100AD8002000D5001E08CB00CC01CB35CC0DCB3582
:100AE800CC0D4B08043ECD0000304C3DCE004D08E7
:100AF800D3004E08D4004330A9007F30A80000304E
:100B0800A7000030A6005508CB00CC01CD01CE01CE
:100B18004E08F5004D08F4004C08F3004B08F200AD
:100B280000308431B724853175082000AD00740881
:100B3800AC007308AB007208AA008231DC22853150
:100B480020002908D2002808D1002708D00026084C
:100B5800CF005308F2005408F300F401F501003007
:100B68008431B724853175082000AD007408AC00C5
:100B78007308AB007208AA005208A9005108A8001F
:100B88005008A7004F08A600803171208531200049
:100B98002908C3002808C2002708C1002608C00089
:100BA80086310426853120004108D7004008D60048
:100BB8005708CC005608CB00CC36CB0CCC36CB0C27
:100BC8004B08CD004D08D80056080339CB00053036
:100BD800CB35FF3E031DEC2D4B35CC004C08D9001E
:100BE80058082C009800200059082C009700200075
:100BF80058082C009B00200059082C009A00080077
:100C080020004008C4004108C5004208C600430847
:100C1800C7000310460D470DC8004808CA004A0817
:100C2800031D172E182E222E0030C3000030C200DC
:100C38000030C1000030C000982E982E4008C40033
:100C48004108C5004208C6004308C7001F30C73620
:100C5800C60CC50CC40C890B2B2E4408C8004808C8
:100C6800C900C217FF30C005FF30C105FF30C205FB
:100C78000030C3059630CA02CA1F432E442E672E81
:100C88004A08803A973E03184A2E4B2E562E0030BB
:100C9800C3000030C2000030C1000030C000982EF0
:100CA800982E562E0130C336C20CC10CC00C890BCD
:100CB800572E0130C4004408CA07031D642E652E50
:100CC800562E882E882E20304A02031C6C2E6D2E3C
:100CD800812E0030C3000030C2000030C100003057
:100CE800C000982E982E812E0130C035C10DC20D3E
:100CF800C30D890B792E0130CA024A08031D852EBF
:100D0800862E782E882E882E490803198C2E8D2E33
:100D1800982EC009C109C209C309C00A0319C10A2A
:100D28000319C20A0319C30A08008B170B170030EE
:100D3800F200F3000130F4000030F5005E30873136
:100D48008327863187312A27863120000C11873185
:100D5800A32786318731CE2786318731BE27863152
:100D6800B52E20005B0885316C25863120005B0894
:100D7800031DBF2EC02ED02E5D080319C42EC52E0C
:100D8800CC2E02305D06031DCA2ECB2ED02ECC2EC3
:100D98008731E6278631D02E20005E1CD42ED52E32
:100DA800252F5E1003100C1D03140318DC2EDF2EF4
:100DB80020000C15E12E20000C11172F5B08031DD5
:100DC800E62EE72E252FDD01DD0A8731E227863161
:100DD80020005C08FB007B08DA00252F252F5B0824
:100DE800031DF72EF82E252F0330FB007B08DD00AE
:100DF8008731DE27863120005C08FB007B08DA009B
:100E0800252F252F0230FB007B08DD00DA01252F76
:100E1800DD01DA01252FDD018731E6278631200043
:100E2800DA01252F252F5D08003A0319E22E013A31
:100E38000319062F033A0319F32E013A03190C2F4D
:100E48000F2F6400B52EB52E803165288B135530D1
:100E58003C008F00AA308F000F108B1723008C01E5
:100E68008E0121000C1125000C1521000C16230001
:100E78000C1621008C1605303C0090000B10200049
:100E88001010210010148E1002303D00A100210026
:100E98000E1103303D00A20021008E110E128E1299
:100EA8008B1355303C008F00AA308F000F148B171E
:100EB8000800FA00F601F7017208F400F501740859
:100EC800F8007508F900682F7A1C6B2F6C2F702FAB
:100ED8007808F6077908F73D0130F835F90D890BE0
:100EE800712F0310FA0C7A08031D7B2F7C2F682FB3
:100EF8007D2F7708F3007608F200822F0800F700AC
:100F08007708F6007608F800952F7208F60078083A
:100F180086008701760881000130F6007608F80718
:100F2800952F0130F4020030F53B740A031DA02F01
:100F3800750A031DA02FA12F892FA22F08002100B9
:100F48008E140E152C0019121C129F3020009E00C2
:100F5800003085316C25873120009110FC309F05C9
:100F68001F15B62F911CB92FBA2FB62F21008E103E
:100F78000E110800033028009704170887394838ED
:100F880097007C30960020009210210092142800CF
:100F98001715080021001D08033910389D009E13FD
:100FA8001E088F3960389E00200011132100111788
:100FB8001D1408002C0099139C1708002C009C1382
:0C0FC800991708002C0099139C130800D6
:020000040001F9
:08000E008CFFFFFFFFFFFFFF65
:00000001FF
